{
  "_format": "hh-sol-artifact-1",
  "contractName": "LlamaPouDepositETH",
  "sourceName": "contracts/LlamaPouDepositETH.sol",
  "abi": [
    {
      "inputs": [],
      "stateMutability": "nonpayable",
      "type": "constructor"
    },
    {
      "anonymous": false,
      "inputs": [
        {
          "indexed": true,
          "internalType": "address",
          "name": "user",
          "type": "address"
        },
        {
          "indexed": false,
          "internalType": "uint256",
          "name": "amount",
          "type": "uint256"
        }
      ],
      "name": "Fed",
      "type": "event"
    },
    {
      "anonymous": false,
      "inputs": [
        {
          "indexed": true,
          "internalType": "address",
          "name": "user",
          "type": "address"
        },
        {
          "indexed": false,
          "internalType": "uint256",
          "name": "amount",
          "type": "uint256"
        }
      ],
      "name": "Withdraw",
      "type": "event"
    },
    {
      "inputs": [],
      "name": "feedLlama",
      "outputs": [],
      "stateMutability": "payable",
      "type": "function"
    },
    {
      "inputs": [],
      "name": "getContractBalance",
      "outputs": [
        {
          "internalType": "uint256",
          "name": "",
          "type": "uint256"
        }
      ],
      "stateMutability": "view",
      "type": "function"
    },
    {
      "inputs": [
        {
          "internalType": "address",
          "name": "user",
          "type": "address"
        }
      ],
      "name": "getDeposited",
      "outputs": [
        {
          "internalType": "uint256",
          "name": "",
          "type": "uint256"
        }
      ],
      "stateMutability": "view",
      "type": "function"
    },
    {
      "inputs": [],
      "name": "owner",
      "outputs": [
        {
          "internalType": "address",
          "name": "",
          "type": "address"
        }
      ],
      "stateMutability": "view",
      "type": "function"
    },
    {
      "inputs": [
        {
          "internalType": "address",
          "name": "",
          "type": "address"
        }
      ],
      "name": "users",
      "outputs": [
        {
          "internalType": "uint256",
          "name": "totalDeposited",
          "type": "uint256"
        },
        {
          "internalType": "uint256",
          "name": "lastInteraction",
          "type": "uint256"
        }
      ],
      "stateMutability": "view",
      "type": "function"
    },
    {
      "inputs": [],
      "name": "withdrawMyDeposit",
      "outputs": [],
      "stateMutability": "nonpayable",
      "type": "function"
    },
    {
      "inputs": [],
      "name": "withdrawRemainingFunds",
      "outputs": [],
      "stateMutability": "nonpayable",
      "type": "function"
    }
  ],
  "bytecode": "0x608060405234801561001057600080fd5b50336000806101000a81548173ffffffffffffffffffffffffffffffffffffffff021916908373ffffffffffffffffffffffffffffffffffffffff160217905550610927806100606000396000f3fe6080604052600436106100705760003560e01c8063916ce78b1161004e578063916ce78b14610108578063a87430ba14610112578063dbea118014610150578063ef86ce8e1461016757610070565b8063466bb312146100755780636f9fb98a146100b25780638da5cb5b146100dd575b600080fd5b34801561008157600080fd5b5061009c60048036038101906100979190610685565b61017e565b6040516100a991906106cb565b60405180910390f35b3480156100be57600080fd5b506100c76101ca565b6040516100d491906106cb565b60405180910390f35b3480156100e957600080fd5b506100f26101d2565b6040516100ff91906106f5565b60405180910390f35b6101106101f6565b005b34801561011e57600080fd5b5061013960048036038101906101349190610685565b610329565b604051610147929190610710565b60405180910390f35b34801561015c57600080fd5b5061016561034d565b005b34801561017357600080fd5b5061017c6104b7565b005b6000600160008373ffffffffffffffffffffffffffffffffffffffff1673ffffffffffffffffffffffffffffffffffffffff168152602001908152602001600020600001549050919050565b600047905090565b60008054906101000a900473ffffffffffffffffffffffffffffffffffffffff1681565b60003411610239576040517f08c379a000000000000000000000000000000000000000000000000000000000815260040161023090610796565b60405180910390fd5b34600160003373ffffffffffffffffffffffffffffffffffffffff1673ffffffffffffffffffffffffffffffffffffffff168152602001908152602001600020600001600082825461028b91906107e5565b9250508190555042600160003373ffffffffffffffffffffffffffffffffffffffff1673ffffffffffffffffffffffffffffffffffffffff168152602001908152602001600020600101819055503373ffffffffffffffffffffffffffffffffffffffff167f617451e08eca3a0e9836e552f65a4bc097fdb7a7868f8d46c12e33ad6d71337c3460405161031f91906106cb565b60405180910390a2565b60016020528060005260406000206000915090508060000154908060010154905082565b6000600160003373ffffffffffffffffffffffffffffffffffffffff1673ffffffffffffffffffffffffffffffffffffffff168152602001908152602001600020600001549050600081116103d7576040517f08c379a00000000000000000000000000000000000000000000000000000000081526004016103ce90610865565b60405180910390fd5b6000600160003373ffffffffffffffffffffffffffffffffffffffff1673ffffffffffffffffffffffffffffffffffffffff168152602001908152602001600020600001819055503373ffffffffffffffffffffffffffffffffffffffff166108fc829081150290604051600060405180830381858888f19350505050158015610465573d6000803e3d6000fd5b503373ffffffffffffffffffffffffffffffffffffffff167f884edad9ce6fa2440d8a54cc123490eb96d2768479d49ff9c7366125a9424364826040516104ac91906106cb565b60405180910390a250565b60008054906101000a900473ffffffffffffffffffffffffffffffffffffffff1673ffffffffffffffffffffffffffffffffffffffff163373ffffffffffffffffffffffffffffffffffffffff1614610545576040517f08c379a000000000000000000000000000000000000000000000000000000000815260040161053c906108d1565b60405180910390fd5b600047905060008054906101000a900473ffffffffffffffffffffffffffffffffffffffff1673ffffffffffffffffffffffffffffffffffffffff166108fc829081150290604051600060405180830381858888f193505050501580156105b0573d6000803e3d6000fd5b5060008054906101000a900473ffffffffffffffffffffffffffffffffffffffff1673ffffffffffffffffffffffffffffffffffffffff167f884edad9ce6fa2440d8a54cc123490eb96d2768479d49ff9c7366125a94243648260405161061791906106cb565b60405180910390a250565b600080fd5b600073ffffffffffffffffffffffffffffffffffffffff82169050919050565b600061065282610627565b9050919050565b61066281610647565b811461066d57600080fd5b50565b60008135905061067f81610659565b92915050565b60006020828403121561069b5761069a610622565b5b60006106a984828501610670565b91505092915050565b6000819050919050565b6106c5816106b2565b82525050565b60006020820190506106e060008301846106bc565b92915050565b6106ef81610647565b82525050565b600060208201905061070a60008301846106e6565b92915050565b600060408201905061072560008301856106bc565b61073260208301846106bc565b9392505050565b600082825260208201905092915050565b7f446562657320656e766961722045544800000000000000000000000000000000600082015250565b6000610780601083610739565b915061078b8261074a565b602082019050919050565b600060208201905081810360008301526107af81610773565b9050919050565b7f4e487b7100000000000000000000000000000000000000000000000000000000600052601160045260246000fd5b60006107f0826106b2565b91506107fb836106b2565b9250828201905080821115610813576108126107b6565b5b92915050565b7f4e6f207469656e6573206465706f7369746f7320706172612072657469726172600082015250565b600061084f602083610739565b915061085a82610819565b602082019050919050565b6000602082019050818103600083015261087e81610842565b9050919050565b7f536f6c6f20656c206f776e6572207075656465206861636572206573746f0000600082015250565b60006108bb601e83610739565b91506108c682610885565b602082019050919050565b600060208201905081810360008301526108ea816108ae565b905091905056fea2646970667358221220b1e1e208c94c667b8dcca4846375be1f3f41479af44ab64323517f57efca0b8d64736f6c63430008140033",
  "linkReferences": {},
  "deployedLinkReferences": {}
}