{
  "_format": "hh-sol-artifact-1",
  "contractName": "CryptoLlama",
  "sourceName": "contracts/CryptoLlama.sol",
  "abi": [
    {
      "anonymous": false,
      "inputs": [
        {
          "indexed": true,
          "internalType": "address",
          "name": "owner",
          "type": "address"
        },
        {
          "indexed": false,
          "internalType": "uint256",
          "name": "id",
          "type": "uint256"
        }
      ],
      "name": "LlamaCreated",
      "type": "event"
    },
    {
      "anonymous": false,
      "inputs": [
        {
          "indexed": true,
          "internalType": "address",
          "name": "owner",
          "type": "address"
        }
      ],
      "name": "LlamaDied",
      "type": "event"
    },
    {
      "anonymous": false,
      "inputs": [
        {
          "indexed": true,
          "internalType": "address",
          "name": "owner",
          "type": "address"
        },
        {
          "indexed": false,
          "internalType": "uint8",
          "name": "newLevel",
          "type": "uint8"
        }
      ],
      "name": "LlamaFed",
      "type": "event"
    },
    {
      "inputs": [],
      "name": "createLlama",
      "outputs": [],
      "stateMutability": "nonpayable",
      "type": "function"
    },
    {
      "inputs": [],
      "name": "feedLlama",
      "outputs": [],
      "stateMutability": "nonpayable",
      "type": "function"
    },
    {
      "inputs": [],
      "name": "getMyLlama",
      "outputs": [
        {
          "components": [
            {
              "internalType": "uint256",
              "name": "id",
              "type": "uint256"
            },
            {
              "internalType": "address",
              "name": "owner",
              "type": "address"
            },
            {
              "internalType": "uint256",
              "name": "birthTime",
              "type": "uint256"
            },
            {
              "internalType": "uint8",
              "name": "level",
              "type": "uint8"
            },
            {
              "internalType": "bool",
              "name": "isAlive",
              "type": "bool"
            }
          ],
          "internalType": "struct CryptoLlama.Llama",
          "name": "",
          "type": "tuple"
        }
      ],
      "stateMutability": "view",
      "type": "function"
    },
    {
      "inputs": [],
      "name": "killLlama",
      "outputs": [],
      "stateMutability": "nonpayable",
      "type": "function"
    },
    {
      "inputs": [],
      "name": "llamaCounter",
      "outputs": [
        {
          "internalType": "uint256",
          "name": "",
          "type": "uint256"
        }
      ],
      "stateMutability": "view",
      "type": "function"
    },
    {
      "inputs": [
        {
          "internalType": "address",
          "name": "",
          "type": "address"
        }
      ],
      "name": "llamas",
      "outputs": [
        {
          "internalType": "uint256",
          "name": "id",
          "type": "uint256"
        },
        {
          "internalType": "address",
          "name": "owner",
          "type": "address"
        },
        {
          "internalType": "uint256",
          "name": "birthTime",
          "type": "uint256"
        },
        {
          "internalType": "uint8",
          "name": "level",
          "type": "uint8"
        },
        {
          "internalType": "bool",
          "name": "isAlive",
          "type": "bool"
        }
      ],
      "stateMutability": "view",
      "type": "function"
    }
  ],
  "bytecode": "0x608060405234801561001057600080fd5b50610c66806100206000396000f3fe608060405234801561001057600080fd5b50600436106100625760003560e01c806316f08d4f146100675780637ae4f4cf14610071578063916ce78b146100a5578063b4430af0146100af578063e8750b52146100b9578063f31d9d5a146100d7575b600080fd5b61006f6100f5565b005b61008b60048036038101906100869190610867565b61022d565b60405161009c9594939291906108f3565b60405180910390f35b6100ad61029d565b005b6100b761045f565b005b6100c16106bc565b6040516100ce9190610946565b60405180910390f35b6100df6106c2565b6040516100ec9190610a05565b60405180910390f35b60008060003373ffffffffffffffffffffffffffffffffffffffff1673ffffffffffffffffffffffffffffffffffffffff1681526020019081526020016000209050600073ffffffffffffffffffffffffffffffffffffffff168160010160009054906101000a900473ffffffffffffffffffffffffffffffffffffffff1673ffffffffffffffffffffffffffffffffffffffff16036101ca576040517f08c379a00000000000000000000000000000000000000000000000000000000081526004016101c190610a7d565b60405180910390fd5b60008160030160016101000a81548160ff0219169083151502179055503373ffffffffffffffffffffffffffffffffffffffff167fe854bb32021d33b33f214a601befac9d531f4fb4c400f4c8974254377d19fd4760405160405180910390a250565b60006020528060005260406000206000915090508060000154908060010160009054906101000a900473ffffffffffffffffffffffffffffffffffffffff16908060020154908060030160009054906101000a900460ff16908060030160019054906101000a900460ff16905085565b60008060003373ffffffffffffffffffffffffffffffffffffffff1673ffffffffffffffffffffffffffffffffffffffff16815260200190815260200160002090508060030160019054906101000a900460ff16610330576040517f08c379a000000000000000000000000000000000000000000000000000000000815260040161032790610ae9565b60405180910390fd5b600073ffffffffffffffffffffffffffffffffffffffff168160010160009054906101000a900473ffffffffffffffffffffffffffffffffffffffff1673ffffffffffffffffffffffffffffffffffffffff16036103c3576040517f08c379a00000000000000000000000000000000000000000000000000000000081526004016103ba90610a7d565b60405180910390fd5b80600301600081819054906101000a900460ff16809291906103e490610b38565b91906101000a81548160ff021916908360ff160217905550503373ffffffffffffffffffffffffffffffffffffffff167fbf035f6ecf8db7d0172463588e7247a1a2133df6df68b7fd87f98d49d1ba68208260030160009054906101000a900460ff166040516104549190610b61565b60405180910390a250565b600073ffffffffffffffffffffffffffffffffffffffff166000803373ffffffffffffffffffffffffffffffffffffffff1673ffffffffffffffffffffffffffffffffffffffff16815260200190815260200160002060010160009054906101000a900473ffffffffffffffffffffffffffffffffffffffff1673ffffffffffffffffffffffffffffffffffffffff161461052f576040517f08c379a000000000000000000000000000000000000000000000000000000000815260040161052690610bc8565b60405180910390fd5b6001600081548092919061054290610be8565b91905055506040518060a0016040528060015481526020013373ffffffffffffffffffffffffffffffffffffffff168152602001428152602001600160ff168152602001600115158152506000803373ffffffffffffffffffffffffffffffffffffffff1673ffffffffffffffffffffffffffffffffffffffff1681526020019081526020016000206000820151816000015560208201518160010160006101000a81548173ffffffffffffffffffffffffffffffffffffffff021916908373ffffffffffffffffffffffffffffffffffffffff1602179055506040820151816002015560608201518160030160006101000a81548160ff021916908360ff16021790555060808201518160030160016101000a81548160ff0219169083151502179055509050503373ffffffffffffffffffffffffffffffffffffffff167f8e53cde433d7aa898ab42c38a0854af321e65b13300e33c99d9292f88c7560bd6001546040516106b29190610946565b60405180910390a2565b60015481565b6106ca6107ba565b6000803373ffffffffffffffffffffffffffffffffffffffff1673ffffffffffffffffffffffffffffffffffffffff1681526020019081526020016000206040518060a0016040529081600082015481526020016001820160009054906101000a900473ffffffffffffffffffffffffffffffffffffffff1673ffffffffffffffffffffffffffffffffffffffff1673ffffffffffffffffffffffffffffffffffffffff168152602001600282015481526020016003820160009054906101000a900460ff1660ff1660ff1681526020016003820160019054906101000a900460ff161515151581525050905090565b6040518060a0016040528060008152602001600073ffffffffffffffffffffffffffffffffffffffff16815260200160008152602001600060ff1681526020016000151581525090565b600080fd5b600073ffffffffffffffffffffffffffffffffffffffff82169050919050565b600061083482610809565b9050919050565b61084481610829565b811461084f57600080fd5b50565b6000813590506108618161083b565b92915050565b60006020828403121561087d5761087c610804565b5b600061088b84828501610852565b91505092915050565b6000819050919050565b6108a781610894565b82525050565b6108b681610829565b82525050565b600060ff82169050919050565b6108d2816108bc565b82525050565b60008115159050919050565b6108ed816108d8565b82525050565b600060a082019050610908600083018861089e565b61091560208301876108ad565b610922604083018661089e565b61092f60608301856108c9565b61093c60808301846108e4565b9695505050505050565b600060208201905061095b600083018461089e565b92915050565b61096a81610894565b82525050565b61097981610829565b82525050565b610988816108bc565b82525050565b610997816108d8565b82525050565b60a0820160008201516109b36000850182610961565b5060208201516109c66020850182610970565b5060408201516109d96040850182610961565b5060608201516109ec606085018261097f565b5060808201516109ff608085018261098e565b50505050565b600060a082019050610a1a600083018461099d565b92915050565b600082825260208201905092915050565b7f4e6f207469656e657320756e61206c6c616d6100000000000000000000000000600082015250565b6000610a67601383610a20565b9150610a7282610a31565b602082019050919050565b60006020820190508181036000830152610a9681610a5a565b9050919050565b7f5475206c6c616d61206861206d756572746f0000000000000000000000000000600082015250565b6000610ad3601283610a20565b9150610ade82610a9d565b602082019050919050565b60006020820190508181036000830152610b0281610ac6565b9050919050565b7f4e487b7100000000000000000000000000000000000000000000000000000000600052601160045260246000fd5b6000610b43826108bc565b915060ff8203610b5657610b55610b09565b5b600182019050919050565b6000602082019050610b7660008301846108c9565b92915050565b7f5961207469656e657320756e61206c6c616d6100000000000000000000000000600082015250565b6000610bb2601383610a20565b9150610bbd82610b7c565b602082019050919050565b60006020820190508181036000830152610be181610ba5565b9050919050565b6000610bf382610894565b91507fffffffffffffffffffffffffffffffffffffffffffffffffffffffffffffffff8203610c2557610c24610b09565b5b60018201905091905056fea264697066735822122084eefd82d99ac5161de335fe05ff11b87981daace09e3b068d0f7909c826fe8b64736f6c63430008140033",
  "linkReferences": {},
  "deployedLinkReferences": {}
}